{
  "contractName": "PollFactory",
  "abi": [
    {
      "anonymous": false,
      "inputs": [
        {
          "indexed": false,
          "internalType": "uint256",
          "name": "pollId",
          "type": "uint256"
        },
        {
          "indexed": false,
          "internalType": "string",
          "name": "title",
          "type": "string"
        }
      ],
      "name": "PollCreated",
      "type": "event"
    },
    {
      "anonymous": false,
      "inputs": [
        {
          "indexed": false,
          "internalType": "address",
          "name": "voter",
          "type": "address"
        },
        {
          "indexed": false,
          "internalType": "uint256",
          "name": "pollId",
          "type": "uint256"
        },
        {
          "indexed": false,
          "internalType": "string",
          "name": "title",
          "type": "string"
        },
        {
          "indexed": false,
          "internalType": "string",
          "name": "option",
          "type": "string"
        },
        {
          "indexed": false,
          "internalType": "uint256",
          "name": "optionOneCount",
          "type": "uint256"
        },
        {
          "indexed": false,
          "internalType": "uint256",
          "name": "optionTwoCount",
          "type": "uint256"
        }
      ],
      "name": "PollVotedOn",
      "type": "event"
    },
    {
      "inputs": [
        {
          "internalType": "uint256",
          "name": "",
          "type": "uint256"
        }
      ],
      "name": "polls",
      "outputs": [
        {
          "internalType": "string",
          "name": "title",
          "type": "string"
        },
        {
          "internalType": "string",
          "name": "option1",
          "type": "string"
        },
        {
          "internalType": "string",
          "name": "option2",
          "type": "string"
        },
        {
          "internalType": "uint256",
          "name": "option1Count",
          "type": "uint256"
        },
        {
          "internalType": "uint256",
          "name": "option2Count",
          "type": "uint256"
        },
        {
          "internalType": "uint32",
          "name": "pollDuration",
          "type": "uint32"
        }
      ],
      "stateMutability": "view",
      "type": "function",
      "constant": true
    }
  ],
  "bytecode": "0x608060405234801561001057600080fd5b50610495806100206000396000f3fe608060405234801561001057600080fd5b506004361061002b5760003560e01c8063ac2f007414610030575b600080fd5b61004a60048036038101906100459190610294565b610065565b60405161005c96959493929190610388565b60405180910390f35b6002818154811061007557600080fd5b90600052602060002090600602016000915090508060000180546100989061042d565b80601f01602080910402602001604051908101604052809291908181526020018280546100c49061042d565b80156101115780601f106100e657610100808354040283529160200191610111565b820191906000526020600020905b8154815290600101906020018083116100f457829003601f168201915b5050505050908060010180546101269061042d565b80601f01602080910402602001604051908101604052809291908181526020018280546101529061042d565b801561019f5780601f106101745761010080835404028352916020019161019f565b820191906000526020600020905b81548152906001019060200180831161018257829003601f168201915b5050505050908060020180546101b49061042d565b80601f01602080910402602001604051908101604052809291908181526020018280546101e09061042d565b801561022d5780601f106102025761010080835404028352916020019161022d565b820191906000526020600020905b81548152906001019060200180831161021057829003601f168201915b5050505050908060030154908060040154908060050160009054906101000a900463ffffffff16905086565b600080fd5b6000819050919050565b6102718161025e565b811461027c57600080fd5b50565b60008135905061028e81610268565b92915050565b6000602082840312156102aa576102a9610259565b5b60006102b88482850161027f565b91505092915050565b600081519050919050565b600082825260208201905092915050565b60005b838110156102fb5780820151818401526020810190506102e0565b8381111561030a576000848401525b50505050565b6000601f19601f8301169050919050565b600061032c826102c1565b61033681856102cc565b93506103468185602086016102dd565b61034f81610310565b840191505092915050565b6103638161025e565b82525050565b600063ffffffff82169050919050565b61038281610369565b82525050565b600060c08201905081810360008301526103a28189610321565b905081810360208301526103b68188610321565b905081810360408301526103ca8187610321565b90506103d9606083018661035a565b6103e6608083018561035a565b6103f360a0830184610379565b979650505050505050565b7f4e487b7100000000000000000000000000000000000000000000000000000000600052602260045260246000fd5b6000600282049050600182168061044557607f821691505b60208210811415610459576104586103fe565b5b5091905056fea2646970667358221220500ba10b206f11c775de837cde5db8d5caa133cdd4238415e51ad208b00b0b0764736f6c634300080a0033",
  "immutableReferences": {},
  "source": "// SPDX-License-Identifier: MIT\npragma solidity >=0.4.22 <0.9.0;\n\ncontract PollFactory {\n  event PollCreated(uint pollId, string title);\n  event PollVotedOn(\n    address voter, \n    uint pollId, \n    string title, \n    string option, \n    uint optionOneCount, \n    uint optionTwoCount);\n  // ?? event PollExpired(uint pollId, string title);\n  // Keeps record of poll creators\n  mapping (uint => address) pollToOwner;\n  // Keeps record on how many times a user voted on a specific poll\n  mapping (address => mapping(uint => uint)) voterVotesOnPoll; \n  //maps pollId to the poll and its attributes\n\n  //information that each poll consists of\n  struct Poll {\n    string title;\n    string option1;\n    string option2;\n    uint option1Count;\n    uint option2Count;\n    uint32 pollDuration;\n  }\n\n  //polls database\n  Poll[] public polls;\n\n  //create poll function\n  function _createPoll(\n    string memory _title,\n    string memory _firstOption,\n    string memory _secondOption) private {\n    // time restriction variable for the created poll to be voted on\n    uint durationTime = 1 weeks;\n    // adds poll to our poll database\n    polls.push(Poll(_title, _firstOption, _secondOption, 0, 0, uint32(block.timestamp + durationTime)));\n    //identifier for each poll (plus an index for our polls database)\n    uint id = polls.length - 1;\n    // assigns the poll's id to the function caller's address\n    pollToOwner[id] = msg.sender;\n    emit PollCreated(id, _title);\n  }\n\n  //Assures the poll's expiartion date and time is not passed before a user can vote\n  modifier pollExpiration (uint _pollId) {\n    require(polls[_pollId].pollDuration > block.timestamp);\n    _;\n  }\n  \n  //user cannot vote if the time duration expires\n  function _vote(uint _pollId, bool optionOne, bool optionTwo) private pollExpiration(_pollId) {\n    // checks if voter previously voted in selected _pollId parameter\n    require(voterVotesOnPoll[msg.sender][_pollId] == 0, \"You already Voted On This Poll\");\n    // if one of the options is clicked, it adds to the _pollId's count\n    string memory option = \"\";\n    if (optionOne == true) {\n      polls[_pollId].option1Count++;\n      option = polls[_pollId].option1;\n    } else if (optionTwo == true) {\n      polls[_pollId].option2Count++;\n      option = polls[_pollId].option2;\n    }\n    //Tells the contract in the voterVotedCheck mapping that the address of the\n    //function caller voted by adding 1 to its count\n    voterVotesOnPoll[msg.sender][_pollId]++;\n    //Fires up the PollVotedOnEvent\n    emit PollVotedOn(\n      msg.sender,\n      _pollId,\n      polls[_pollId].title,\n      option,\n      polls[_pollId].option1Count,\n      polls[_pollId].option2Count\n    );\n  }\n}\n",
  "sourcePath": "/Users/Marcus/Documents/Projects/votingSystem/contracts/PollFactory.sol",
  "compiler": {
    "name": "solc",
    "version": "0.8.10+commit.fc410830.Emscripten.clang"
  },
  "schemaVersion": "3.4.4",
  "updatedAt": "2021-12-28T05:56:16.240Z",
  "networkType": "ethereum",
  "devdoc": {
    "kind": "dev",
    "methods": {},
    "version": 1
  },
  "userdoc": {
    "kind": "user",
    "methods": {},
    "version": 1
  }
}