{
  "contractName": "PollFactory",
  "abi": [
    {
      "anonymous": false,
      "inputs": [
        {
          "indexed": false,
          "internalType": "uint256",
          "name": "id",
          "type": "uint256"
        },
        {
          "indexed": false,
          "internalType": "string",
          "name": "title",
          "type": "string"
        }
      ],
      "name": "NewPoll",
      "type": "event"
    },
    {
      "anonymous": false,
      "inputs": [
        {
          "indexed": false,
          "internalType": "address",
          "name": "voter",
          "type": "address"
        },
        {
          "indexed": false,
          "internalType": "uint256",
          "name": "id",
          "type": "uint256"
        },
        {
          "indexed": false,
          "internalType": "string",
          "name": "title",
          "type": "string"
        },
        {
          "indexed": false,
          "internalType": "uint256",
          "name": "firstChoiceCount",
          "type": "uint256"
        },
        {
          "indexed": false,
          "internalType": "uint256",
          "name": "secondChoiceCount",
          "type": "uint256"
        }
      ],
      "name": "VoteAdded",
      "type": "event"
    },
    {
      "inputs": [
        {
          "internalType": "uint256",
          "name": "",
          "type": "uint256"
        }
      ],
      "name": "polls",
      "outputs": [
        {
          "internalType": "string",
          "name": "title",
          "type": "string"
        },
        {
          "internalType": "string",
          "name": "option1",
          "type": "string"
        },
        {
          "internalType": "string",
          "name": "option2",
          "type": "string"
        },
        {
          "internalType": "uint256",
          "name": "option1Count",
          "type": "uint256"
        },
        {
          "internalType": "uint256",
          "name": "option2Count",
          "type": "uint256"
        },
        {
          "internalType": "uint32",
          "name": "pollDuration",
          "type": "uint32"
        }
      ],
      "stateMutability": "view",
      "type": "function",
      "constant": true
    },
    {
      "inputs": [
        {
          "internalType": "string",
          "name": "_title",
          "type": "string"
        },
        {
          "internalType": "string",
          "name": "_firstOption",
          "type": "string"
        },
        {
          "internalType": "string",
          "name": "_secondOption",
          "type": "string"
        }
      ],
      "name": "createPoll",
      "outputs": [
        {
          "internalType": "uint256",
          "name": "",
          "type": "uint256"
        }
      ],
      "stateMutability": "nonpayable",
      "type": "function"
    },
    {
      "inputs": [
        {
          "internalType": "uint256",
          "name": "_pollId",
          "type": "uint256"
        }
      ],
      "name": "getPoll",
      "outputs": [
        {
          "internalType": "string",
          "name": "",
          "type": "string"
        },
        {
          "internalType": "string",
          "name": "",
          "type": "string"
        },
        {
          "internalType": "string",
          "name": "",
          "type": "string"
        },
        {
          "internalType": "uint256",
          "name": "",
          "type": "uint256"
        },
        {
          "internalType": "uint256",
          "name": "",
          "type": "uint256"
        },
        {
          "internalType": "uint32",
          "name": "",
          "type": "uint32"
        }
      ],
      "stateMutability": "view",
      "type": "function",
      "constant": true
    },
    {
      "inputs": [
        {
          "internalType": "uint256",
          "name": "_pollId",
          "type": "uint256"
        },
        {
          "internalType": "bool",
          "name": "optionOne",
          "type": "bool"
        },
        {
          "internalType": "bool",
          "name": "optionTwo",
          "type": "bool"
        }
      ],
      "name": "vote",
      "outputs": [
        {
          "internalType": "string",
          "name": "",
          "type": "string"
        }
      ],
      "stateMutability": "nonpayable",
      "type": "function"
    }
  ],
  "bytecode": "0x608060405234801561001057600080fd5b506114af806100206000396000f3fe608060405234801561001057600080fd5b506004361061004c5760003560e01c80631a8cbcaa14610051578063ac2f007414610086578063df133bca146100bb578063e201201c146100eb575b600080fd5b61006b60048036038101906100669190610ca1565b61011b565b60405161007d96959493929190610d95565b60405180910390f35b6100a0600480360381019061009b9190610ca1565b6103cf565b6040516100b296959493929190610d95565b60405180910390f35b6100d560048036038101906100d09190610e43565b6105c3565b6040516100e29190610e96565b60405180910390f35b61010560048036038101906101009190610fed565b610a00565b6040516101129190611094565b60405180910390f35b6060806060600080600060028781548110610139576101386110af565b5b90600052602060002090600602016000016002888154811061015e5761015d6110af565b5b906000526020600020906006020160010160028981548110610183576101826110af565b5b906000526020600020906006020160020160028a815481106101a8576101a76110af565b5b90600052602060002090600602016003015460028b815481106101ce576101cd6110af565b5b90600052602060002090600602016004015460028c815481106101f4576101f36110af565b5b906000526020600020906006020160050160009054906101000a900463ffffffff168580546102229061110d565b80601f016020809104026020016040519081016040528092919081815260200182805461024e9061110d565b801561029b5780601f106102705761010080835404028352916020019161029b565b820191906000526020600020905b81548152906001019060200180831161027e57829003601f168201915b505050505095508480546102ae9061110d565b80601f01602080910402602001604051908101604052809291908181526020018280546102da9061110d565b80156103275780601f106102fc57610100808354040283529160200191610327565b820191906000526020600020905b81548152906001019060200180831161030a57829003601f168201915b5050505050945083805461033a9061110d565b80601f01602080910402602001604051908101604052809291908181526020018280546103669061110d565b80156103b35780601f10610388576101008083540402835291602001916103b3565b820191906000526020600020905b81548152906001019060200180831161039657829003601f168201915b5050505050935095509550955095509550955091939550919395565b600281815481106103df57600080fd5b90600052602060002090600602016000915090508060000180546104029061110d565b80601f016020809104026020016040519081016040528092919081815260200182805461042e9061110d565b801561047b5780601f106104505761010080835404028352916020019161047b565b820191906000526020600020905b81548152906001019060200180831161045e57829003601f168201915b5050505050908060010180546104909061110d565b80601f01602080910402602001604051908101604052809291908181526020018280546104bc9061110d565b80156105095780601f106104de57610100808354040283529160200191610509565b820191906000526020600020905b8154815290600101906020018083116104ec57829003601f168201915b50505050509080600201805461051e9061110d565b80601f016020809104026020016040519081016040528092919081815260200182805461054a9061110d565b80156105975780601f1061056c57610100808354040283529160200191610597565b820191906000526020600020905b81548152906001019060200180831161057a57829003601f168201915b5050505050908060030154908060040154908060050160009054906101000a900463ffffffff16905086565b60608342600282815481106105db576105da6110af565b5b906000526020600020906006020160050160009054906101000a900463ffffffff1663ffffffff1611610643576040517f08c379a000000000000000000000000000000000000000000000000000000000815260040161063a9061118b565b60405180910390fd5b6000600160003373ffffffffffffffffffffffffffffffffffffffff1673ffffffffffffffffffffffffffffffffffffffff168152602001908152602001600020600087815260200190815260200160002054146106d6576040517f08c379a00000000000000000000000000000000000000000000000000000000081526004016106cd906111f7565b60405180910390fd5b60006040518060200160405280600081525090506001151585151514156107e7576002868154811061070b5761070a6110af565b5b9060005260206000209060060201600301600081548092919061072d90611246565b919050555060028681548110610746576107456110af565b5b906000526020600020906006020160010180546107629061110d565b80601f016020809104026020016040519081016040528092919081815260200182805461078e9061110d565b80156107db5780601f106107b0576101008083540402835291602001916107db565b820191906000526020600020905b8154815290600101906020018083116107be57829003601f168201915b505050505090506108e1565b6001151584151514156108e05760028681548110610808576108076110af565b5b9060005260206000209060060201600401600081548092919061082a90611246565b919050555060028681548110610843576108426110af565b5b9060005260206000209060060201600201805461085f9061110d565b80601f016020809104026020016040519081016040528092919081815260200182805461088b9061110d565b80156108d85780601f106108ad576101008083540402835291602001916108d8565b820191906000526020600020905b8154815290600101906020018083116108bb57829003601f168201915b505050505090505b5b600160003373ffffffffffffffffffffffffffffffffffffffff1673ffffffffffffffffffffffffffffffffffffffff1681526020019081526020016000206000878152602001908152602001600020600081548092919061094290611246565b91905055507f62705c0324824515d3ee52add18676651c5932bca539a4616438304b020f88c733876002898154811061097e5761097d6110af565b5b906000526020600020906006020160000160028a815481106109a3576109a26110af565b5b90600052602060002090600602016003015460028b815481106109c9576109c86110af565b5b9060005260206000209060060201600401546040516109ec959493929190611365565b60405180910390a180925050509392505050565b60008062093a80905060026040518060c0016040528087815260200186815260200185815260200160008152602001600081526020018342610a4291906113bf565b63ffffffff1681525090806001815401808255809150506001900390600052602060002090600602016000909190919091506000820151816000019080519060200190610a90929190610bb4565b506020820151816001019080519060200190610aad929190610bb4565b506040820151816002019080519060200190610aca929190610bb4565b50606082015181600301556080820151816004015560a08201518160050160006101000a81548163ffffffff021916908363ffffffff160217905550505060006001600280549050610b1c9190611415565b90503360008083815260200190815260200160002060006101000a81548173ffffffffffffffffffffffffffffffffffffffff021916908373ffffffffffffffffffffffffffffffffffffffff1602179055507f47bd0b9fc8e5b989f9bf37153789ea83e8674ee3ff41addd2c692fb3299701748187604051610ba0929190611449565b60405180910390a180925050509392505050565b828054610bc09061110d565b90600052602060002090601f016020900481019282610be25760008555610c29565b82601f10610bfb57805160ff1916838001178555610c29565b82800160010185558215610c29579182015b82811115610c28578251825591602001919060010190610c0d565b5b509050610c369190610c3a565b5090565b5b80821115610c53576000816000905550600101610c3b565b5090565b6000604051905090565b600080fd5b600080fd5b6000819050919050565b610c7e81610c6b565b8114610c8957600080fd5b50565b600081359050610c9b81610c75565b92915050565b600060208284031215610cb757610cb6610c61565b5b6000610cc584828501610c8c565b91505092915050565b600081519050919050565b600082825260208201905092915050565b60005b83811015610d08578082015181840152602081019050610ced565b83811115610d17576000848401525b50505050565b6000601f19601f8301169050919050565b6000610d3982610cce565b610d438185610cd9565b9350610d53818560208601610cea565b610d5c81610d1d565b840191505092915050565b610d7081610c6b565b82525050565b600063ffffffff82169050919050565b610d8f81610d76565b82525050565b600060c0820190508181036000830152610daf8189610d2e565b90508181036020830152610dc38188610d2e565b90508181036040830152610dd78187610d2e565b9050610de66060830186610d67565b610df36080830185610d67565b610e0060a0830184610d86565b979650505050505050565b60008115159050919050565b610e2081610e0b565b8114610e2b57600080fd5b50565b600081359050610e3d81610e17565b92915050565b600080600060608486031215610e5c57610e5b610c61565b5b6000610e6a86828701610c8c565b9350506020610e7b86828701610e2e565b9250506040610e8c86828701610e2e565b9150509250925092565b60006020820190508181036000830152610eb08184610d2e565b905092915050565b600080fd5b600080fd5b7f4e487b7100000000000000000000000000000000000000000000000000000000600052604160045260246000fd5b610efa82610d1d565b810181811067ffffffffffffffff82111715610f1957610f18610ec2565b5b80604052505050565b6000610f2c610c57565b9050610f388282610ef1565b919050565b600067ffffffffffffffff821115610f5857610f57610ec2565b5b610f6182610d1d565b9050602081019050919050565b82818337600083830152505050565b6000610f90610f8b84610f3d565b610f22565b905082815260208101848484011115610fac57610fab610ebd565b5b610fb7848285610f6e565b509392505050565b600082601f830112610fd457610fd3610eb8565b5b8135610fe4848260208601610f7d565b91505092915050565b60008060006060848603121561100657611005610c61565b5b600084013567ffffffffffffffff81111561102457611023610c66565b5b61103086828701610fbf565b935050602084013567ffffffffffffffff81111561105157611050610c66565b5b61105d86828701610fbf565b925050604084013567ffffffffffffffff81111561107e5761107d610c66565b5b61108a86828701610fbf565b9150509250925092565b60006020820190506110a96000830184610d67565b92915050565b7f4e487b7100000000000000000000000000000000000000000000000000000000600052603260045260246000fd5b7f4e487b7100000000000000000000000000000000000000000000000000000000600052602260045260246000fd5b6000600282049050600182168061112557607f821691505b60208210811415611139576111386110de565b5b50919050565b7f54696d6520657870697265640000000000000000000000000000000000000000600082015250565b6000611175600c83610cd9565b91506111808261113f565b602082019050919050565b600060208201905081810360008301526111a481611168565b9050919050565b7f596f7520616c726561647920566f746564204f6e205468697320506f6c6c0000600082015250565b60006111e1601e83610cd9565b91506111ec826111ab565b602082019050919050565b60006020820190508181036000830152611210816111d4565b9050919050565b7f4e487b7100000000000000000000000000000000000000000000000000000000600052601160045260246000fd5b600061125182610c6b565b91507fffffffffffffffffffffffffffffffffffffffffffffffffffffffffffffffff82141561128457611283611217565b5b600182019050919050565b600073ffffffffffffffffffffffffffffffffffffffff82169050919050565b60006112ba8261128f565b9050919050565b6112ca816112af565b82525050565b60008190508160005260206000209050919050565b600081546112f28161110d565b6112fc8186610cd9565b9450600182166000811461131757600181146113295761135c565b60ff198316865260208601935061135c565b611332856112d0565b60005b8381101561135457815481890152600182019150602081019050611335565b808801955050505b50505092915050565b600060a08201905061137a60008301886112c1565b6113876020830187610d67565b818103604083015261139981866112e5565b90506113a86060830185610d67565b6113b56080830184610d67565b9695505050505050565b60006113ca82610c6b565b91506113d583610c6b565b9250827fffffffffffffffffffffffffffffffffffffffffffffffffffffffffffffffff0382111561140a57611409611217565b5b828201905092915050565b600061142082610c6b565b915061142b83610c6b565b92508282101561143e5761143d611217565b5b828203905092915050565b600060408201905061145e6000830185610d67565b81810360208301526114708184610d2e565b9050939250505056fea2646970667358221220edbedf6a497f43be8a5d38e7b996ed2523567fe8ea796c07d5ca969be5c7182d64736f6c634300080a0033",
  "immutableReferences": {},
  "source": "// SPDX-License-Identifier: MIT\npragma solidity >=0.4.22 <0.9.0;\n\ncontract PollFactory {\n  event NewPoll(uint id, string title);\n  event VoteAdded(address voter, uint id, string title, uint firstChoiceCount, uint secondChoiceCount);\n  // Keeps record of poll creators\n  mapping (uint => address) pollToOwner;\n  // Keeps record on how many times a user voted on a specific poll\n  mapping (address => mapping(uint => uint)) voterVotesOnPoll;\n  //maps pollId to the poll and its attributes\n\n  //information that each poll consists of\n  struct Poll {\n    string title;\n    string option1;\n    string option2;\n    uint option1Count;\n    uint option2Count;\n    uint32 pollDuration;\n  }\n\n  //polls database\n  Poll[] public polls;\n\n  //create poll function\n  function createPoll(\n    string memory _title,\n    string memory _firstOption,\n    string memory _secondOption) public returns (uint) {\n    // time restriction variable for the created poll to be voted on\n    uint durationTime = 1 weeks;\n    // adds poll to our poll database\n    polls.push(Poll(_title, _firstOption, _secondOption, 0, 0, uint32(block.timestamp + durationTime)));\n    //identifier for each poll (plus an index for our polls database)\n    uint id = polls.length - 1;\n    // assigns the poll's id to the function caller's address\n    pollToOwner[id] = msg.sender;\n    emit NewPoll(id, _title);\n    return id;\n  }\n\n  function getPoll(uint _pollId) public view returns (\n    string memory,\n    string memory,\n    string memory,\n    uint,\n    uint,\n    uint32\n  ) {\n    return (\n      polls[_pollId].title,\n      polls[_pollId].option1,\n      polls[_pollId].option2,\n      polls[_pollId].option1Count,\n      polls[_pollId].option2Count,\n      polls[_pollId].pollDuration\n    );\n  }\n\n  //Assures the poll's expiartion date and time is not passed before a user can vote\n  modifier pollExpiration (uint _pollId) {\n    require(polls[_pollId].pollDuration > block.timestamp, \"Time expired\");\n    _;\n  }\n\n  //user cannot vote if the time duration expires\n  function vote(\n    uint _pollId,\n    bool optionOne,\n    bool optionTwo\n  ) public pollExpiration(_pollId) returns (string memory) {\n    // checks if voter previously voted in selected _pollId parameter\n    require(voterVotesOnPoll[msg.sender][_pollId] == 0, \"You already Voted On This Poll\");\n    // if one of the options is clicked, it adds to the _pollId's count\n    string memory option = \"\";\n    if (optionOne == true) {\n      polls[_pollId].option1Count++;\n      option = polls[_pollId].option1;\n    } else if (optionTwo == true) {\n      polls[_pollId].option2Count++;\n      option = polls[_pollId].option2;\n    }\n    //Tells the contract in the voterVotedCheck mapping that the address of the\n    //function caller voted by adding 1 to its count\n    voterVotesOnPoll[msg.sender][_pollId]++;\n    //Fires up the PollVotedOnEvent\n    emit VoteAdded(\n      msg.sender,\n      _pollId,\n      polls[_pollId].title ,\n      polls[_pollId].option1Count,\n      polls[_pollId].option2Count\n    );\n    return option;\n  }\n}\n",
  "sourcePath": "/Users/Marcus/Documents/Projects/pollingSystem/contracts/PollFactory.sol",
  "compiler": {
    "name": "solc",
    "version": "0.8.10+commit.fc410830.Emscripten.clang"
  },
  "schemaVersion": "3.4.4",
  "updatedAt": "2021-12-29T12:20:30.288Z",
  "networkType": "ethereum",
  "devdoc": {
    "kind": "dev",
    "methods": {},
    "version": 1
  },
  "userdoc": {
    "kind": "user",
    "methods": {},
    "version": 1
  }
}